{
  "contractName": "CourseMarketplace",
  "abi": [
    {
      "inputs": [],
      "stateMutability": "nonpayable",
      "type": "constructor"
    },
    {
      "inputs": [],
      "name": "CourseHasOwner",
      "type": "error"
    },
    {
      "inputs": [],
      "name": "CourseIsNotCreated",
      "type": "error"
    },
    {
      "inputs": [],
      "name": "InvalidState",
      "type": "error"
    },
    {
      "inputs": [],
      "name": "OnlyOwner",
      "type": "error"
    },
    {
      "inputs": [],
      "name": "SenderIsNotCourseOwner",
      "type": "error"
    },
    {
      "inputs": [],
      "name": "isStopped",
      "outputs": [
        {
          "internalType": "bool",
          "name": "",
          "type": "bool"
        }
      ],
      "stateMutability": "view",
      "type": "function",
      "constant": true
    },
    {
      "stateMutability": "payable",
      "type": "receive",
      "payable": true
    },
    {
      "inputs": [
        {
          "internalType": "uint256",
          "name": "amount",
          "type": "uint256"
        }
      ],
      "name": "withdraw",
      "outputs": [],
      "stateMutability": "nonpayable",
      "type": "function"
    },
    {
      "inputs": [],
      "name": "emergencyWithdraw",
      "outputs": [],
      "stateMutability": "nonpayable",
      "type": "function"
    },
    {
      "inputs": [],
      "name": "selfDestruct",
      "outputs": [],
      "stateMutability": "nonpayable",
      "type": "function"
    },
    {
      "inputs": [],
      "name": "stopContract",
      "outputs": [],
      "stateMutability": "nonpayable",
      "type": "function"
    },
    {
      "inputs": [],
      "name": "resumeContract",
      "outputs": [],
      "stateMutability": "nonpayable",
      "type": "function"
    },
    {
      "inputs": [
        {
          "internalType": "bytes16",
          "name": "courseId",
          "type": "bytes16"
        },
        {
          "internalType": "bytes32",
          "name": "proof",
          "type": "bytes32"
        }
      ],
      "name": "purchaseCourse",
      "outputs": [],
      "stateMutability": "payable",
      "type": "function",
      "payable": true
    },
    {
      "inputs": [
        {
          "internalType": "bytes32",
          "name": "courseHash",
          "type": "bytes32"
        }
      ],
      "name": "repurchaseCourse",
      "outputs": [],
      "stateMutability": "payable",
      "type": "function",
      "payable": true
    },
    {
      "inputs": [
        {
          "internalType": "bytes32",
          "name": "courseHash",
          "type": "bytes32"
        }
      ],
      "name": "activateCourse",
      "outputs": [],
      "stateMutability": "nonpayable",
      "type": "function"
    },
    {
      "inputs": [
        {
          "internalType": "bytes32",
          "name": "courseHash",
          "type": "bytes32"
        }
      ],
      "name": "deactivateCourse",
      "outputs": [],
      "stateMutability": "nonpayable",
      "type": "function"
    },
    {
      "inputs": [
        {
          "internalType": "address",
          "name": "newOwner",
          "type": "address"
        }
      ],
      "name": "transferOwnership",
      "outputs": [],
      "stateMutability": "nonpayable",
      "type": "function"
    },
    {
      "inputs": [],
      "name": "getCourseCount",
      "outputs": [
        {
          "internalType": "uint256",
          "name": "",
          "type": "uint256"
        }
      ],
      "stateMutability": "view",
      "type": "function",
      "constant": true
    },
    {
      "inputs": [
        {
          "internalType": "uint256",
          "name": "index",
          "type": "uint256"
        }
      ],
      "name": "getCourseHashAtIndex",
      "outputs": [
        {
          "internalType": "bytes32",
          "name": "",
          "type": "bytes32"
        }
      ],
      "stateMutability": "view",
      "type": "function",
      "constant": true
    },
    {
      "inputs": [
        {
          "internalType": "bytes32",
          "name": "courseHash",
          "type": "bytes32"
        }
      ],
      "name": "getCourseByHash",
      "outputs": [
        {
          "components": [
            {
              "internalType": "uint256",
              "name": "id",
              "type": "uint256"
            },
            {
              "internalType": "uint256",
              "name": "price",
              "type": "uint256"
            },
            {
              "internalType": "bytes32",
              "name": "proof",
              "type": "bytes32"
            },
            {
              "internalType": "address",
              "name": "owner",
              "type": "address"
            },
            {
              "internalType": "enum CourseMarketplace.State",
              "name": "state",
              "type": "uint8"
            }
          ],
          "internalType": "struct CourseMarketplace.Course",
          "name": "",
          "type": "tuple"
        }
      ],
      "stateMutability": "view",
      "type": "function",
      "constant": true
    },
    {
      "inputs": [],
      "name": "getContractOwner",
      "outputs": [
        {
          "internalType": "address",
          "name": "",
          "type": "address"
        }
      ],
      "stateMutability": "view",
      "type": "function",
      "constant": true
    }
  ],
  "bytecode": "0x60806040526000805460ff1916905534801561001a57600080fd5b50600480546001600160a01b03191633179055610c258061003c6000396000f3fe6080604052600436106100ec5760003560e01c80636d11290b1161008a578063c4bc5da511610059578063c4bc5da51461026b578063d76821cb14610280578063db2e21bc14610293578063f2fde38b146102a857600080fd5b80636d11290b146101e6578063935d7e6d1461022157806396cfda06146102415780639cb8a26a1461025657600080fd5b80633f683b6a116100c65780633f683b6a1461014f578063442890d51461017e5780636136e1eb146101a657806362e4e6ac146101b957600080fd5b806312253a6c146100f85780632e1a7d4d1461010f578063392625721461012f57600080fd5b366100f357005b600080fd5b34801561010457600080fd5b5061010d6102c8565b005b34801561011b57600080fd5b5061010d61012a366004610ace565b610302565b34801561013b57600080fd5b5061010d61014a366004610ace565b6103cc565b34801561015b57600080fd5b506000546101699060ff1681565b60405190151581526020015b60405180910390f35b34801561018a57600080fd5b506004546040516001600160a01b039091168152602001610175565b61010d6101b4366004610ace565b6104a3565b3480156101c557600080fd5b506101d96101d4366004610ace565b610593565b6040516101759190610afd565b3480156101f257600080fd5b50610213610201366004610ace565b60009081526002602052604090205490565b604051908152602001610175565b34801561022d57600080fd5b5061010d61023c366004610ace565b61064a565b34801561024d57600080fd5b50600354610213565b34801561026257600080fd5b5061010d6107c7565b34801561027757600080fd5b5061010d61080f565b61010d61028e366004610b5d565b610846565b34801561029f57600080fd5b5061010d6109b1565b3480156102b457600080fd5b5061010d6102c3366004610b96565b610a85565b6004546001600160a01b031633146102f357604051635fc483c560e01b815260040160405180910390fd5b6000805460ff19166001179055565b6004546001600160a01b0316331461032d57604051635fc483c560e01b815260040160405180910390fd5b6004546040516000916001600160a01b03169083908381818185875af1925050503d806000811461037a576040519150601f19603f3d011682016040523d82523d6000602084013e61037f565b606091505b50509050806103c85760405162461bcd60e51b815260206004820152601060248201526f2a3930b739b332b9103330b4b632b21760811b60448201526064015b60405180910390fd5b5050565b60005460ff16156103dc57600080fd5b6004546001600160a01b0316331461040757604051635fc483c560e01b815260040160405180910390fd5b6000818152600160205260409020600301546001600160a01b031661043f57604051634db0c48360e01b815260040160405180910390fd5b6000818152600160205260408120906003820154600160a01b900460ff16600281111561046e5761046e610ae7565b1461048c5760405163baf3f0f760e01b815260040160405180910390fd5b600301805460ff60a01b1916600160a01b17905550565b60005460ff16156104b357600080fd5b6000818152600160205260409020600301546001600160a01b03166104eb57604051634db0c48360e01b815260040160405180910390fd5b61050f816000908152600160205260409020600301546001600160a01b0316331490565b61052c57604051633338c73160e21b815260040160405180910390fd5b600081815260016020526040902060026003820154600160a01b900460ff16600281111561055c5761055c610ae7565b1461057a5760405163baf3f0f760e01b815260040160405180910390fd5b60038101805460ff60a01b191690553460019091015550565b6105c26040805160a0810182526000808252602082018190529181018290526060810182905290608082015290565b600082815260016020818152604092839020835160a0810185528154815292810154918301919091526002808201549383019390935260038101546001600160a01b0381166060840152919290916080840191600160a01b90910460ff169081111561063057610630610ae7565b600281111561064157610641610ae7565b90525092915050565b60005460ff161561065a57600080fd5b6004546001600160a01b0316331461068557604051635fc483c560e01b815260040160405180910390fd5b6000818152600160205260409020600301546001600160a01b03166106bd57604051634db0c48360e01b815260040160405180910390fd5b6000818152600160205260408120906003820154600160a01b900460ff1660028111156106ec576106ec610ae7565b1461070a5760405163baf3f0f760e01b815260040160405180910390fd5b600381015460018201546040516000926001600160a01b031691908381818185875af1925050503d806000811461075d576040519150601f19603f3d011682016040523d82523d6000602084013e610762565b606091505b50509050806107a65760405162461bcd60e51b815260206004820152601060248201526f5472616e73666572206661696c65642160801b60448201526064016103bf565b5060038101805460ff60a01b1916600160a11b179055600060019091015550565b60005460ff166107d657600080fd5b6004546001600160a01b0316331461080157604051635fc483c560e01b815260040160405180910390fd5b6004546001600160a01b0316ff5b6004546001600160a01b0316331461083a57604051635fc483c560e01b815260040160405180910390fd5b6000805460ff19169055565b60005460ff161561085657600080fd5b6040516001600160801b0319831660208201526bffffffffffffffffffffffff193360601b1660308201526000906044016040516020818303038152906040528051906020012090506108c3816000908152600160205260409020600301546001600160a01b0316331490565b156108e15760405163b0fc2d9760e01b815260040160405180910390fd5b60038054600091826108f283610bc6565b909155506000818152600260208181526040808420879055805160a081018252858152348184019081528183018a81523360608401908152608084018881528b8952600196879052949097208351815591519482019490945592518385015593516003830180546001600160a01b031981166001600160a01b03909316928317825592519697509495929492936001600160a81b03199092161790600160a01b9084908111156109a4576109a4610ae7565b0217905550505050505050565b60005460ff166109c057600080fd5b6004546001600160a01b031633146109eb57604051635fc483c560e01b815260040160405180910390fd5b6004546040516000916001600160a01b0316903031908381818185875af1925050503d8060008114610a39576040519150601f19603f3d011682016040523d82523d6000602084013e610a3e565b606091505b5050905080610a825760405162461bcd60e51b815260206004820152601060248201526f2a3930b739b332b9103330b4b632b21760811b60448201526064016103bf565b50565b6004546001600160a01b03163314610ab057604051635fc483c560e01b815260040160405180910390fd5b600480546001600160a01b0319166001600160a01b03831617905550565b600060208284031215610ae057600080fd5b5035919050565b634e487b7160e01b600052602160045260246000fd5b8151815260208083015190820152604080830151908201526060808301516001600160a01b031690820152608082015160a082019060038110610b5057634e487b7160e01b600052602160045260246000fd5b8060808401525092915050565b60008060408385031215610b7057600080fd5b82356001600160801b031981168114610b8857600080fd5b946020939093013593505050565b600060208284031215610ba857600080fd5b81356001600160a01b0381168114610bbf57600080fd5b9392505050565b6000600019821415610be857634e487b7160e01b600052601160045260246000fd5b506001019056fea2646970667358221220ce41eb1cee7df794b835f24ec4352e589362758ff251a2f21d88cd533fcaa9fa64736f6c634300080a0033",
  "immutableReferences": {},
  "source": "// SPDX-License-Identifier: MIT\npragma solidity >=0.4.22 <0.9.0;\n\ncontract CourseMarketplace {\n\n  enum State {\n    Purchased,\n    Activated,\n    Deactivated\n  }\n\n  struct Course {\n    uint id; // 32\n    uint price; // 32\n    bytes32 proof; // 32\n    address owner; // 20\n    State state; // 1\n  }\n\n  bool public isStopped = false;\n\n  // mapping of courseHash to Course data\n  mapping(bytes32 => Course) private ownedCourses;\n\n  // mapping of courseID to courseHash\n  mapping(uint => bytes32) private ownedCourseHash;\n\n  // number of all courses + id of the course\n  uint private totalOwnedCourses;\n\n  address payable private owner;\n\n  constructor() {\n    setContractOwner(msg.sender);\n  }\n\n  /// Course has invalid state!\n  error InvalidState();\n\n  /// Course is not created!\n  error CourseIsNotCreated();\n\n  /// Course has already a Owner!\n  error CourseHasOwner();\n\n  /// Sender is not course owner!\n  error SenderIsNotCourseOwner();\n\n  /// Only owner has an access!\n  error OnlyOwner();\n\n  modifier onlyOwner() {\n    if (msg.sender != getContractOwner()) {\n      revert OnlyOwner();\n    }\n    _;\n  }\n\n  modifier onlyWhenNotStopped {\n    require(!isStopped);\n    _;\n  }\n\n  modifier onlyWhenStopped {\n    require(isStopped);\n    _;\n  }\n\n  receive() external payable {}\n\n  function withdraw(uint amount)\n    external\n    onlyOwner\n  {\n    (bool success, ) = owner.call{value: amount}(\"\");\n    require(success, \"Transfer failed.\");\n  }\n\n  function emergencyWithdraw()\n    external\n    onlyWhenStopped\n    onlyOwner\n  {\n    (bool success, ) = owner.call{value: address(this).balance}(\"\");\n    require(success, \"Transfer failed.\");\n  }\n\n  function selfDestruct()\n    external\n    onlyWhenStopped\n    onlyOwner\n  {\n    selfdestruct(owner);\n  }\n\n  function stopContract()\n    external\n    onlyOwner\n  {\n    isStopped = true;\n  }\n\n  function resumeContract()\n    external\n    onlyOwner\n  {\n    isStopped = false;\n  }\n\n  function purchaseCourse(\n    bytes16 courseId, // 0x00000000000000000000000000003130\n    bytes32 proof // 0x0000000000000000000000000000313000000000000000000000000000003130\n  )\n    external\n    payable\n    onlyWhenNotStopped\n  {\n    bytes32 courseHash = keccak256(abi.encodePacked(courseId, msg.sender));\n\n    if (hasCourseOwnership(courseHash)) {\n      revert CourseHasOwner();\n    }\n\n    uint id = totalOwnedCourses++;\n\n    ownedCourseHash[id] = courseHash;\n    ownedCourses[courseHash] = Course({\n      id: id,\n      price: msg.value,\n      proof: proof,\n      owner: msg.sender,\n      state: State.Purchased\n    });\n  }\n\n  function repurchaseCourse(bytes32 courseHash)\n    external\n    payable\n    onlyWhenNotStopped\n  {\n    if (!isCourseCreated(courseHash)) {\n      revert CourseIsNotCreated();\n    }\n\n    if (!hasCourseOwnership(courseHash)) {\n      revert SenderIsNotCourseOwner();\n    }\n\n    Course storage course = ownedCourses[courseHash];\n\n    if (course.state != State.Deactivated) {\n      revert InvalidState();\n    }\n\n    course.state = State.Purchased;\n    course.price = msg.value;\n  }\n\n  function activateCourse(bytes32 courseHash)\n    external\n    onlyWhenNotStopped\n    onlyOwner\n  {\n    if (!isCourseCreated(courseHash)) {\n      revert CourseIsNotCreated();\n    }\n\n    Course storage course = ownedCourses[courseHash];\n\n    if (course.state != State.Purchased) {\n      revert InvalidState();\n    }\n\n    course.state = State.Activated;\n  }\n\n  function deactivateCourse(bytes32 courseHash)\n    external\n    onlyWhenNotStopped\n    onlyOwner\n  {\n    if (!isCourseCreated(courseHash)) {\n      revert CourseIsNotCreated();\n    }\n\n    Course storage course = ownedCourses[courseHash];\n\n    if (course.state != State.Purchased) {\n      revert InvalidState();\n    }\n\n    (bool success, ) = course.owner.call{value: course.price}(\"\");\n    require(success, \"Transfer failed!\");\n\n    course.state = State.Deactivated;\n    course.price = 0;\n  }\n\n  function transferOwnership(address newOwner)\n    external\n    onlyOwner\n  {\n    setContractOwner(newOwner);\n  }\n\n  function getCourseCount()\n    external\n    view\n    returns (uint)\n  {\n    return totalOwnedCourses;\n  }\n\n  function getCourseHashAtIndex(uint index)\n    external\n    view\n    returns (bytes32)\n  {\n    return ownedCourseHash[index];\n  }\n\n  function getCourseByHash(bytes32 courseHash)\n    external\n    view\n    returns (Course memory)\n  {\n    return ownedCourses[courseHash];\n  }\n\n  function getContractOwner()\n    public\n    view\n    returns (address)\n  {\n    return owner;\n  }\n\n  function setContractOwner(address newOwner) private {\n    owner = payable(newOwner);\n  }\n\n  function isCourseCreated(bytes32 courseHash)\n    private\n    view\n    returns (bool)\n  {\n    return ownedCourses[courseHash].owner != 0x0000000000000000000000000000000000000000;\n  }\n\n  function hasCourseOwnership(bytes32 courseHash)\n    private\n    view\n    returns (bool)\n  {\n    return ownedCourses[courseHash].owner == msg.sender;\n  }\n}\n",
  "sourcePath": "/Users/nlwsoft/Downloads/Codes/eth-marketplace-course-main/contracts/contracts/CourseMarketplace.sol",
  "compiler": {
    "name": "solc",
    "version": "0.8.10+commit.fc410830.Emscripten.clang"
  },
  "schemaVersion": "3.4.3",
  "updatedAt": "2021-11-28T13:35:42.652Z",
  "networkType": "ethereum",
  "devdoc": {
    "kind": "dev",
    "methods": {},
    "version": 1
  },
  "userdoc": {
    "errors": {
      "CourseHasOwner()": [
        {
          "notice": "Course has already a Owner!"
        }
      ],
      "CourseIsNotCreated()": [
        {
          "notice": "Course is not created!"
        }
      ],
      "InvalidState()": [
        {
          "notice": "Course has invalid state!"
        }
      ],
      "OnlyOwner()": [
        {
          "notice": "Only owner has an access!"
        }
      ],
      "SenderIsNotCourseOwner()": [
        {
          "notice": "Sender is not course owner!"
        }
      ]
    },
    "kind": "user",
    "methods": {},
    "version": 1
  }
}